:100000003CC3000059C3000057C3000055C30000A3
:1000100053C3000051C300004FC300004DC3000094
:100020004BC3000049C300000C94BB0F0C94F50FA8
:1000300043C3000041C300003FC300003DC30000B4
:100040003BC300008BC3000037C3000035C3000072
:1000500033C3000031C300002FC300002DC30000D4
:100060002CC300000C94121227C3000025C300000B
:1000700023C3000021C300001FC300001DC30000F4
:100080001BC3000019C3000017C3000015C3000004
:1000900013C3000011C30000910F8E0F8B0F880F48
:1000A000850F820F7F0F7C0F790F760F730F700F04
:1000B0006D0F6A0F670F640F610F5E0F5B0F580FB4
:1000C000550F520F4F0F4C0F490F460F430F400F64
:1000D0003D0F3A0F370F340F310F2E0F2B0F280F14
:1000E000250F220F1F0F1C0F190F160F130F100FC4
:1000F0000D0F0A0F070F040F010FFE0EFB0EF80E77
:10010000F50EF20EEF0EEC0EE90EE60EE30EE00E2B
:10011000DD0EDA0ED70ED40ED10E2720636F6D6D73
:10012000616E642C206D7573742068617665203F64
:10013000206F72203D0D0A00556E6B6E6F776E203A
:100140002700222C206D7573742062652030206F8B
:100150007220310D0A00556E6B6E6F776E207661DE
:100160006C75652022000D0A00222C206D757374B9
:10017000206265203020746F20370D0A00556E6BA9
:100180006E6F776E2070696E2022000A4669656C7A
:100190006420726F626F74207374656572696E6734
:1001A0002055534220696E746572666163652C2028
:1001B0002449643A20737465657275632E63203434
:1001C000353220323031342D30332D32312031333D
:1001D0003A32383A33345A206A63616E20240D0A69
:1001E000436F6E74726F6C205368656C6C0A0D0AF5
:1001F000202046363D312020205772697465203119
:1002000020746F20706F72742070696E2046360DF6
:100210000A202044363D3120202057726974652021
:100220003120506F727420442070696E203620286F
:100230004436206973204C45442070696E290D0AAC
:10024000202042343D3020202047657420737461A3
:1002500074757320666F7220737769746368657351
:10026000202870696E204234206E6F74207573658B
:1002700064290D0A2020693D3120202020496E7418
:100280006572616374697665202D20757365206CD5
:100290006F63616C206563686F206F6620616C6CB2
:1002A00020636F6D6D616E64730D0A20206A3D617D
:1002B000202020207365742074696D696E67206347
:1002C000686172202D2069732072657475726E6585
:1002D000642061732070617274206F662073746192
:1002E0007475730D0A20206D3D3020202020646934
:1002F0007361626C65206D61676E6574696320650A
:100300006E636F64657220636F6D6D756E69636196
:1003100074696F6E202864656661756C74206973FA
:100320002031290D0A2020783D30202020206469CA
:100330007361626C652064796E616D6978656C20AB
:10034000636F6D6D756E69636174696F6E2028648B
:10035000656661756C742069732031290D0A20204F
:10036000723D612C62202064786C2072656164208B
:10037000627974652066726F6D20736572766F2086
:1003800061205B302E2E3235355D617420616464EE
:10039000726573732028646563696D616C290D0A49
:1003A0002020523D612C62202064786C20726561AF
:1003B0006420776F72642066726F6D207365727649
:1003C0006F2061205B302E2E3235355D2061742028
:1003D000616464726573732028646563696D616C20
:1003E000290D0A20204B3D4C2C522020736574208F
:1003F0006C65667420616E6420726967687420732E
:100400006572766F20746F207468657365207661FD
:100410006C756573205B302E2E343039355D2028A5
:10042000646563696D616C290D0A2020773D612C3C
:10043000622C63202064786C207772697465206276
:1004400079746520746F20736572766F2061205B0C
:10045000302E2E3235355D20617420616464726502
:100460007373206220746F2076616C756520630D54
:100470000A2020573D612C622C63202064786C2078
:10048000777269746520776F726420746F2073656A
:1004900072766F2061205B302E2E3235355D206103
:1004A000742061646472657373206220746F2076B7
:1004B000616C756520630D0A2020735B3D315D2002
:1004C00020202053656E6420737461747573202836
:1004D000313D2070757368207374617475732C20BE
:1004E000303D2073746F70290D0A2020726573658A
:1004F000742020476574206D61696E207374617487
:10050000757320666F7220616C6C20736572766FF4
:1005100073202D20617265207468657920616C6993
:1005200076650D0A202068656C702020205468696B
:10053000732068656C7020746578740D0A003E0045
:100540000D0A00636D6420656E640A0D00636D64BE
:100550002073746172740A0D004669656C642072C0
:100560006F626F74207374656572696E672C2024E6
:1005700049643A20737465657275632E632034355F
:100580003220323031342D30332D32312031333A74
:1005900032383A33345A206A63616E20240D0A00DF
:1005A00000010000D4051200020000E6054300032C
:1005B0000000290604010309042D061E0203090494
:1005C0004D0616030309046506120001C1120180DD
:1005D000360181361201000202000010C0167A04B2
:1005E00000010102030109024300020100C03209B7
:1005F000040000010202010005240010010524018D
:1006000001010424020605240600010705820310E7
:10061000004009040100020A00000007050302402F
:10062000000007058402400000040309041E03457E
:10063000006D0062006F00720067002F004A0043E7
:100640000041002F004400540055000000160355DF
:1006500000530042002000530065007200690061F1
:10066000006C000000120332003000310033003013
:100670000037003000310000000011241FBECFEF12
:10068000D0E2DEBFCDBF12E0A0E0B1E0E4E1F5E3EF
:1006900000E00BBF02C007900D92AA35B107D9F751
:1006A00015E0AAE5B2E001C01D92A23FB107E1F753
:1006B0000E94890C0C94881AA3CC1F920F920FB63B
:1006C0000F920BB60F9211242F933F934F938F935A
:1006D0009F93EF93FF9330915E024EB520915F029E
:1006E000822F90E0FC01EE0FFF1FEE0FFF1FEE0FB9
:1006F000FF1FE30FF11DE453FA4F40833F5F309338
:100700005E02383018F48CE38EBD11C0289A805AEE
:100710009D4F31E0FC013083E22FEF5FE370E09307
:100720005F02F0E0E05AFD4F108210925E0280916D
:1007300071029091720201969093720280937102FD
:10074000FF91EF919F918F914F913F912F910F903A
:100750000BBE0F900FBE0F901F9018951F920F9217
:100760000FB60F9211242F938F939F938091730252
:100770009091740201969093740280937302209179
:100780006E022230E1F0233020F4213009F061C004
:1007900006C0233051F1243009F05BC035C080E43D
:1007A00096E090938900809388008091D701809390
:1007B0007502479A109298041092970452C0809143
:1007C000D701882309F44DC0809197049091980433
:1007D000019690939804809397048731910508F0CF
:1007E00040C081E080936E023CC01092750222E00E
:1007F0008732920718F081E08093EF0547981092B6
:100800009E0410928F042DC080E698E19093890099
:10081000809388008091D6018823A9F080915E02A0
:10082000882329F42898289828988CE38EBD9091E5
:100830009E04992329F480916E02815080936E0268
:100840009F5F90939E0480915D028F5F80935D0215
:1008500008C010926E0280E496E090938900809325
:10086000880080916E028F5F80936E029F918F91BE
:100870002F910F900FBE0F901F9018950F931F93FD
:10088000FC0161816770660F660F82818295869593
:1008900086958370680F6093EC05218126952695D7
:1008A0002695808190E08F77907005E0880F991FE2
:1008B0000A95E1F7820F911D90930A05809309052F
:1008C0004091900450919104480F591F5093910406
:1008D00040939004282F022E22952025022E269543
:1008E0002695202530E02F5F3F4F35952795722FB5
:1008F0007170892F082E82958025082E8695869501
:100900008025062E62956025062E669566956025E3
:10091000282F30E02F5F3F4F35952795217030709D
:10092000220F862F90E001969595879581709070A3
:10093000880F880F280F270F20938E04022E2295F0
:100940002025022E269526952025328181E090E0F3
:1009500035FD02C080E090E030E02F5F3F4F3595DD
:100960002795217030E061E08217930709F060E07D
:1009700060939904662349F480916802909169021A
:10098000019690936902809368028481869586958A
:1009900086958093ED05228130E02F703070322FE4
:1009A00022279381290F311D30938A0420938904D3
:1009B0006091930470919404620F731F7093940478
:1009C00060939304A22F0A2EA295A0250A2EA69525
:1009D000A695A025B0E01196B595A795A170232FF7
:1009E000022E22952025022E269526952025082EBA
:1009F00082958025082E86958695802530E02F5F8C
:100A00003F4F3595279521703070220F90E0019669
:100A10009595879581709070880F880F280F2A0F01
:100A200020930805022E22952025022E2695269534
:100A30002025348181E090E032FD02C080E090E02A
:100A400030E02F5F3F4F35952795217030E0A1E0D2
:100A50008217930709F0A0E0A0938704AA2349F422
:100A600080916A0290916B02019690936B02809341
:100A70006A0216811F711093CB05248130E021702A
:100A80003070922F88272581820F911D23E0880FD7
:100A9000991F2A95E1F72681229526952770820FC6
:100AA000911D9093960480939504A091C905B091EF
:100AB000CA05A80FB91FB093CA05A093C905282F6E
:100AC000022E22952025022E26952695202530E0FF
:100AD0002F5F3F4F35952795022F0170892F082EE4
:100AE00082958025082E869586958025012E129563
:100AF0001025012E169516951025282F30E02F5F12
:100B00003F4F3595279521703070220F812F90E04F
:100B100001969595879581709070880F880F280FA2
:100B2000200F20938204022E22952025022E269546
:100B3000269520258781992787FD90958827990FED
:100B4000881F992730E02F5F3F4F359527952170FB
:100B500030E0E1E08217930709F0E0E0E0939204CF
:100B6000EE2349F480916C0290916D02019690936E
:100B70006D0280936C025093D9014093D80110927A
:100B80009104109290047093DB016093DA0110924B
:100B9000940410929304B093DD01A093DC011092B1
:100BA000CA051092C90580918F048F5F80938F04CE
:100BB0001F910F910895DC010D900020E9F7BD0110
:100BC00061507040681B790B0C94840EF4DF8091A7
:100BD000D3019091D401EFDF0C94A80FCF92DF9254
:100BE000FF920F931F93CF93DF938091D6018823B9
:100BF00009F4B4C02DB73EB72C5030400FB6F8946E
:100C00003EBF0FBE2DBFEDB7FEB73196CBE0D5E0AE
:100C1000ADB7BEB71296DC93CE9311970EEB10E0F2
:100C20001383028380E091E0958384838091D801CF
:100C30009091D901978386838091DA019091DB01AD
:100C4000918780878091DC019091DD019387828775
:100C50000E94641709900020E9F72197CB50D540F6
:100C6000FC2E8C2F90E0EC01C55FDA4FEDB7FEB79C
:100C70003196ADB7BEB71296DC93CE93119768014B
:100C8000C81AD90AD382C2828EE091E09583848308
:100C90008091EC0590E08F709070978386838091AF
:100CA000ED0590E08F709070918780878091CB05E3
:100CB00090E08F709070938782870E946417DE01A6
:100CC0000D900020E9F71197AC1BBD0BFA0E8F2D8C
:100CD00090E0EC01C55FDA4FADB7BEB71196EDB746
:100CE000FEB7D283C183081B190B13961C930E9376
:100CF00012978CE191E015969C938E9314978091B6
:100D000068029091690217969C938E931697809132
:100D10006A0290916B0219969C938E93189780911A
:100D20006C0290916D021B969C938E931A970E9471
:100D300064176E018C2F9D2DFC0101900020E9F7B6
:100D40003197E81BF90BFE0E4DB75EB7445F5F4F5E
:100D50000FB6F8945EBF0FBE4DBF01C0FF242F2D0C
:100D600030E08901055F1A4F8CB1ADB7BEB7189757
:100D70000FB6F894BEBF0FBEADBF1196EDB7FEB76C
:100D800012830183CEEBD0E06E01C21AD30A139610
:100D9000DC92CE92129727E231E015963C932E9387
:100DA000149790E0809590958170907017969C9321
:100DB0008E9316970E946417D8010D900020E9F7D2
:100DC0001197A01BB10BFA0E2DB73EB7285F3F4F0E
:100DD0000FB6F8943EBF0FBE2DBF8091D701882378
:100DE00009F4E5C08F2D90E08C01055F1A4F4DB7D7
:100DF0005EB7445150400FB6F8945EBF0FBE4DBF72
:100E0000EDB7FEB73196ADB7BEB712961C930E93F1
:100E100011976E01C81AD90AD382C2828DE291E07D
:100E2000958384838091C4049091C50497838683BD
:100E30008091C6049091C704918780878091C804EF
:100E40009091C904938782878091CA04848715860C
:100E50008091CB04868717868091B104808B118A9C
:100E600080917B0290917C02938B828B0E9464170D
:100E7000D8010D900020E9F71197A01BB10BFA0ED5
:100E80008F2D90E08C01055F1A4FEDB7FEB73196BC
:100E9000ADB7BEB712961C930E9311976E01C81A88
:100EA000D90AD382C28286E491E0958384838091BB
:100EB000F6049091F704978386838091F8049091CB
:100EC000F904918780878091FA049091FB049387BD
:100ED00082878091FC04848715868091FD04868733
:100EE00017868091E304808B118A80917D02909116
:100EF0007E02938B828B0E946417D8010D90002094
:100F0000E9F71197A01BB10BFA0E8F2D90E08C0121
:100F1000055F1A4FEDB7FEB73196ADB7BEB7129663
:100F20001C930E931197C81BD90BD383C2838FE5F3
:100F300091E09583848380917604909177049783E0
:100F40008683809172049091730491878087809149
:100F50007404909175049387828780917A049091AC
:100F60007B049587848780917E0490917F04978786
:100F7000868780917C0490917D04918B808B8091F9
:100F8000800490918104938B828B0E946417F801F6
:100F900001900020E9F73197E01BF10BFE0EEDB751
:100FA000FEB774960FB6F894FEBF0FBEEDBF6F2D5F
:100FB0006F3B08F06EEB8BE095E070E0A5D6DF911B
:100FC000CF911F910F91FF90DF90CF90089587E010
:100FD00084B92B9A289A8AED8CBD1DBC88EE8AB9FB
:100FE00084E08BB96091E9017091EA018091EB0195
:100FF0009091EC010E944612809388041092800028
:1010000089E0809381008EEF9FEF90938900809319
:10101000880082E080936F008FE887B908952F924F
:101020003F924F925F926F927F928F929F92AF9278
:10103000BF92CF92DF92EF92FF920F931F93DF93B5
:10104000CF9300D000D0CDB7DEB73DEEC32E31E058
:10105000D32E24E0222E25E0322E83E894E09A83DA
:10106000898392EB492E94E0592EAA24BB2482E373
:10107000682E712C45010894A11CB11CF6018081D9
:10108000992787FD90950E94261482E090E00E94A7
:10109000291484E090E00E94311480E090E060E048
:1010A00070E00E942C1481E090E063E170E00E9407
:1010B0002C1410927402109273020E9476110E94F6
:1010C000A4130E941214F10181931F012091730255
:1010D00030917402E981FA8121933193FA83E98393
:1010E000813009F08BC00E9434149C018333910538
:1010F00010F022E330E0869C7001879CF00C969CF7
:10110000F00C112480EA94E0E80EF91E00E010E0F3
:101110000CC0C8012B833C830E943814F7018193D3
:101120007F010F5F1F4F3C812B81021713078CF348
:10113000869CF001879CF00D969CF00D1124E20F27
:10114000F31FE854FB4F03C0A1922F5F3F4F2233A0
:101150003105D1F7F6018081992787FD90950E948E
:10116000261482E090E00E94291484E090E00E941E
:10117000311480E090E068E170E00E942C1481E07E
:1011800090E06AE170E00E942C140E94A4130E9477
:1011900034149C018333910510F022E330E0869CE7
:1011A0007001879CF00C969CF00C112488EB94E065
:1011B000E80EF91E00E010E00CC0C8012B833C8350
:1011C0000E943814F70181937F010F5F1F4F3C810C
:1011D0002B81021713078CF3869CF001879CF00D7E
:1011E000969CF00D1124E20FF31FE854FB4F03C04F
:1011F000A1922F5F3F4F22333105D1F7F201808159
:101200001816ECF4F6018081992787FD90950E94CD
:10121000261483E090E00E94291484E090E00E946C
:10122000311480E090E062E170E00E942C1481E0D3
:1012300090E060E070E00E942C140E94A4130894D7
:10124000C11CD11C82E390E0480E591E92E0A91601
:10125000B10409F00FCF0F900F900F900F90CF9126
:10126000DF911F910F91FF90EF90DF90CF90BF9093
:10127000AF909F908F907F906F905F904F903F9036
:101280002F900895CF92DF92EF92FF920F931F93CA
:10129000CF93DF93EC016B018A01FC01E351FE4F18
:1012A0008081992787FD90950E94261482E090E026
:1012B0000E94291484E090E00E94311480E090E0C4
:1012C000B6010E942C1481E090E0B8010E942C1419
:1012D00010927402109273020E9476110E94A4135D
:1012E0000E941214FE01EC5FFA4F80838130F1F40A
:1012F0000E94341482E390E0C89F7001C99FF00CF3
:10130000D89FF00C1124EC0CFD1C80EA94E0E80E50
:10131000F91EC0E0D0E007C0CE010E943814F701EA
:1013200081937F012196C017D107B4F3DF91CF914C
:101330001F910F91FF90EF90DF90CF900895CF9382
:10134000DF93EC01FE0121968491882311F09AD459
:10135000F9CFDF91CF9108952F923F924F925F92F4
:101360006F927F928F929F92AF92BF92CF92DF92B5
:10137000EF92FF920F931F93CF93DF9389E595E050
:10138000DEDFF3E88F2EF4E09F2EE2EBCE2EE4E0DA
:10139000DE2E74E0A72E75E0B72E00E010E06BE0C3
:1013A000E62E65E0F62E5EEB452E512C47E7242E07
:1013B00041E0342EE501D5017D905D01872D90E05F
:1013C0000E941714F401219131914F014DB75EB77E
:1013D000405150400FB6F8945EBF0FBE4DBFEDB701
:1013E000FEB73196ADB7BEB71296FC92EE9211974A
:1013F0005382428235822482178306837086118647
:101400009387828735872487D6018C91992787FD1A
:101410009095978786870E946417EDB7FEB7709600
:101420000FB6F894FEBF0FBEEDBFC701CFDB8881BA
:10143000813009F047C0C0E0D0E042E350E0049FB3
:101440003001059F700C149F700C1124C331D1051D
:1014500031F0C930D10529F4CAE0D0E002C0C8E1BA
:10146000D0E08DB79EB70A970FB6F8949EBF0FBE17
:101470008DBFEDB7FEB73196ADB7BEB71296FC92F1
:10148000EE9211975382428245EA51E0558344839C
:10149000D783C683D301AC0FBD1FA056BB4F8C9121
:1014A000808711860E9464178DB79EB70A960FB683
:1014B000F8949EBF0FBE8DBFC7017DDB2196CF3252
:1014C000D10524F20F5F1F4FA2E3B0E0CA0EDB1E6E
:1014D0000230110509F06ECFDF91CF911F910F916E
:1014E000FF90EF90DF90CF90BF90AF909F908F9044
:1014F0007F906F905F904F903F902F900895CF9284
:10150000DF92EF92FF920F931F93DF93CF9300D060
:101510000F92CDB7DEB78C01C62EDC012C912B3695
:1015200011F02B34B9F5F80181818D3399F5C8019B
:1015300002969A8389838E010F5F1F4FB80140E0A6
:1015400050E00E9418166B017C0189819A81DC01B0
:101550002D91CD01BA83A9832C3209F0CEC1B801F7
:1015600040E050E00E941816B0E160307B0708F0C0
:10157000C4C120917F02222309F0BFC1D092F001A3
:10158000C092EF017093F2016093F10181E08093CA
:101590007F02B3C1322F3154363008F4A7C1305224
:1015A000363008F4A3C1293681F4F80181818D33E6
:1015B000C1F581E090E02281213311F080E090E0DC
:1015C00090935B0280935A0298C12A3661F4D80145
:1015D00011968C9111978D3321F512968C9112975B
:1015E0008093D5018AC12337A9F4F80181818D3315
:1015F00051F4C801029660E070E040E050E00E94C3
:10160000181660935C0280915C02882309F075C112
:10161000E5DA73C1283611F0283419F48BE891E02B
:1016200062C1C80163EB71E02B830E944A172B81D2
:10163000009719F0F4DC90DE60C1223711F02235FA
:10164000A1F5D80111968C9111978D3371F5C801D0
:1016500002969A8389837E010894E11CF11CB701EC
:1016600040E050E00E94181689819A81FC01219186
:10167000CF01FA83E9832C3209F037C11092770247
:1016800021E02093E801109276026093EE05B70105
:1016900040E050E00E94181660938B0481E0D8016E
:1016A0009C91923509F044C044C0273719F0273582
:1016B00009F049C0F80181818D3309F044C0C801A7
:1016C00002969A8389837E010894E11CF11CB7017C
:1016D00040E050E00E94181689819A81DC012D912A
:1016E000CD01BA83A9832C3209F0FFC01092770292
:1016F0001092E801109276026093EE05B70140E087
:1017000050E00E94181660938B0489819A8101969B
:101710009A838983B70140E050E00E9418167093C5
:101720009D0460939C0481E0F8019081973509F055
:1017300080E080939F0410928D0410928C0481E0CD
:1017400080937602DAC02D3611F02D34A1F4D80141
:1017500011968C9111978D3371F4C80102969A837A
:101760008983BE016F5F7F4F40E050E00E941816F2
:101770006093D601C2C0283711F0283591F4F801E2
:1017800081818D3371F4C80102969A838983BE01E9
:101790006F5F7F4F40E050E00E9418166093D701C2
:1017A000ACC08DB79EB70A970FB6F8949EBF0FBE18
:1017B0008DBFEDB7FEB731968BE095E0ADB7BEB704
:1017C00012969C938E9311978EEB90E09383828375
:1017D00089EB91E095838483C68217821187008705
:1017E0000E946417EDB7FEB73A960FB6F894FEBFA5
:1017F0000FBEEDBF82C08DE791E03B83A0DDD80135
:101800008C9140D289E691E09ADD82E020E03B8134
:1018100023C0F80182818F33F1F4E3E03E9FF001B1
:10182000112481E090E002C0880F991F2A95E2F709
:10183000382F309521A1232321A320A130E0282394
:1018400039232115310511F081E301C080E31AD25B
:1018500086E691E048C080E0FC2DF430D0F1D8015C
:1018600012969C9112979D33A1F513968C91139724
:10187000803391F4E3E03E9FF001112481E090E099
:1018800002C0880F991F2A95E2F721A1282B21A3D6
:10189000809592A1982312C0813391F4E3E03E9F9A
:1018A000F001112481E090E002C0880F991F2A9571
:1018B000E2F791A1982B91A392A1982B92A31DC01E
:1018C00086E591E03CDDF8018381DCD182E491E0A2
:1018D0000AC0882391F488E391E031DDD8018C912E
:1018E000D1D18AE191E02BDD08C030E0F8012181FF
:1018F0002053283008F48DCF7ECF0F900F900F909B
:10190000CF91DF911F910F91FF90EF90DF90CF90DB
:1019100008956F927F928F929F92AF92BF92CF92D3
:10192000DF92EF92FF920F931F93DF93CF93CDB788
:10193000DEB7A0970FB6F894DEBF0FBECDBF80E82C
:101940008093610010926100569A5E9A40DB67DBDB
:101950002CD144D18823E9F38FEF93EDA0E381509C
:101960009040A040E1F700C0000002D380FFFDCF0F
:1019700076D1F2DCAA24CC24DD24BB247724739412
:101980008E010F5F1F4F32E0832E912C8C0E9D1E17
:1019900003C00894C11CD11C80915F0281508370E8
:1019A00090E020E6E22E22E0F22EE80EF91ED701AA
:1019B0002C91222359F0B3E0880F991FBA95E1F7D3
:1019C00084539A4F0E943E04F701108280915C027A
:1019D00090915D02891728F4882319F0FFD810929E
:1019E0005D0280917502882309F490C010927502FF
:1019F00080917F028823E9F05E9A8091ED01409109
:101A0000EF015091F001992787FD90956EE170E00C
:101A1000A2D78091EE014091F1015091F2019927F6
:101A200087FD90956EE170E096D75E9810927F02E8
:101A30006FC080917602813009F044C08DE495E05A
:101A40007EDC80919F049091E801882391F0809141
:101A5000EE0560918B04992321F090E070E052D75D
:101A600019C040919C0450919D0490E070E073D7A0
:101A700011C08091EE0560918B04992321F090E0D4
:101A800070E0FCD607C040919C0450919D0490E00A
:101A900070E019D7C7D68230910564F0E091EE0569
:101AA000F0E0EE0FFF1FE558FD4F80819181019618
:101AB00091838083109276027092770283E495E09E
:101AC0003EDC22C0AA2021F1C6018F7090700097E1
:101AD00071F480E090E061E170E042E050E0D2DB40
:101AE00081E090E061E170E042E050E00CC081E014
:101AF00090917A02911180E080937A0290E064E202
:101B000070E048E050E0BEDBAA2402C0AA24A394FF
:101B10008CD0682E3CC0EB2CFF2463D0F801EE0D76
:101B2000FF1D808320915A0230915B0221153105FF
:101B300009F0A8D0F401EE0DFF1D1082F801EE0DA2
:101B4000FF1D80818A3011F08D30C1F480915A02DE
:101B500090915B02009719F080E495E0F0DBC801FA
:101B60006B2DCDDC80915A0290915B02009719F0A9
:101B70008EE395E0E4DB1982BB240BCF80528F35D6
:101B800008F4B394FB2DF03208F0BB246A9466206D
:101B900009F4FFCE80917602882309F4BCCFF9CEF8
:101BA0008091E80080FFFCCF089581E88093D70002
:101BB00080EA8093D80086E189BD09B400FEFDCF9C
:101BC00080E98093D8001092E00010928002109279
:101BD00081028CE08093E2007894089580918002E5
:101BE00008958FB7F89490918002992369F093E05B
:101BF0009093E9002BE69091E80095FD09C092FFD3
:101C000003C02093E800F7CF8FBF2FEF3FEF0BC04B
:101C10002091F1009091E80095FD03C09BE6909320
:101C2000E8008FBF30E0C90108952FB7F894809184
:101C30008002882389F083E08093E9008091F2009C
:101C4000882359F49091E80092FF07C095FD05C0E4
:101C50009BE69093E80001C080E02FBF089580913B
:101C60008002882371F08FB7F89493E09093E90095
:101C70009BE602C09093E8002091E80025FDFACF92
:101C80008FBF0895909180029923D1F19FB7F89466
:101C900024E02093E90020918302222341F0209147
:101CA000E80025FD02C09FBF2BC010928302209147
:101CB000E400275E34E04091E80045FD12C09FBF7C
:101CC0009091E400921721F481E08093830218C080
:101CD000909180029923B1F09FB7F8943093E90076
:101CE000EACF8093F1008091E80085FD03C08AE38C
:101CF0008093E80085E0809382029FBF80E0089592
:101D00008FEF08958FEF08951F93DC01809180027B
:101D1000882309F41AC12FB7F89484E08093E9006E
:101D200080918302882309F406C18091E80085FD33
:101D300002C02FBF0AC110928302FDC08091E4004F
:101D4000875E9091E80095FD13C02FBF9091E4004D
:101D5000981721F481E080938302F7C0909180026C
:101D6000992309F4F2C02FB7F8941093E900E9CF52
:101D70008091F200E52FE81B8E2F90E0681779071D
:101D800008F4E62F6E1B7109F0E0E134F10508F06C
:101D9000C5C0E45BFF4FEE0FFF1F0590F491E02DEF
:101DA00009948D918093F1008D918093F1008D9134
:101DB0008093F1008D918093F1008D918093F100DB
:101DC0008D918093F1008D918093F1008D9180939E
:101DD000F1008D918093F1008D918093F1008D91B0
:101DE0008093F1008D918093F1008D918093F100AB
:101DF0008D918093F1008D918093F1008D9180936E
:101E0000F1008D918093F1008D918093F1008D917F
:101E10008093F1008D918093F1008D918093F1007A
:101E20008D918093F1008D918093F1008D9180933D
:101E3000F1008D918093F1008D918093F1008D914F
:101E40008093F1008D918093F1008D918093F1004A
:101E50008D918093F1008D918093F1008D9180930D
:101E6000F1008D918093F1008D918093F1008D911F
:101E70008093F1008D918093F1008D918093F1001A
:101E80008D918093F1008D918093F1008D918093DD
:101E9000F1008D918093F1008D918093F1008D91EF
:101EA0008093F1008D918093F1008D918093F100EA
:101EB0008D918093F1008D918093F1008D918093AD
:101EC000F1008D918093F1008D918093F1008D91BF
:101ED0008093F1008D918093F1008D918093F100BA
:101EE0008D918093F1008D918093F1008D9180937D
:101EF000F1008D918093F1008D918093F1008D918F
:101F00008093F1008D918093F1008D918093F10089
:101F10008D918093F1008D918093F1008D9180934C
:101F2000F1008091E80085FD02C04093E800309305
:101F300082022FBF04C014E050E44AE335E061158B
:101F4000710509F0FBCE80E001C08FEF1F9108956D
:101F50008FB7F89490918202992341F094E0909386
:101F6000E9009AE39093E800109282028FBF0895EF
:101F70008091810208951F920F920FB60F92112443
:101F80008F939F938091E1001092E10083FF11C035
:101F90001092E90091E09093EB001092EC0092E136
:101FA0009093ED0098E09093F000109280021092D0
:101FB000810282FF13C080918002882379F0809192
:101FC0008202882359F0815080938202882331F461
:101FD00084E08093E9008AE38093E8009F918F91E9
:101FE0000F900FBE0F901F9018951F920F920FB673
:101FF0000F920BB60F921124EF92FF920F931F9343
:102000002F933F934F935F936F937F938F939F9300
:10201000AF93BF93EF93FF93DF93CF930F92CDB71F
:10202000DEB71092E9008091E80083FF29C120917A
:10203000F1003091F1008091F100E82EFF244091F1
:10204000F100942F80E0E82AF92A0091F10010E0D5
:102050004091F100942F80E0082B192B6091F10042
:10206000A091F10082EF8093E800363009F059C06A
:1020700087EA95E09C0125503040FC013797459157
:1020800054914E155F05F9F4F901459154914017AB
:102090005107C9F42E5F3F4FF901859194912E5F4E
:1020A0003F4FF9012491462F50E07A2F60E0462BF4
:1020B000572B4F3F510519F010F04FEF50E04217EA
:1020C00050F4242F08C00796295F3F4FF5E0813D6B
:1020D0009F0799F6D5C0AEEF4091E80050E0BA01F5
:1020E0006570707061157105B9F342FDCCC0322F77
:1020F000213108F030E1AC01632F07C0FA014F5FD6
:102100005F4FE491E093F10061506623B9F7830FCC
:10211000911D231BA093E8002223F1F63031E1F258
:10212000B2C0353049F48EEF8093E80039DD8E2D52
:1021300080688093E300A7C0393051F5222309F06D
:102140009FC0E092800210928102109282028EEF74
:102150008093E80041E08AEC95E04093E900FC01BF
:102160000196E491E093EB00EE2369F09C012F5F70
:102170003F4FFC0184918093EC00C9010196F90165
:1021800024912093ED004F5F453039F78EE173C005
:10219000383049F4203809F073C002DD80918002A4
:1021A0008093F10045C0313271F4213A09F068C0E2
:1021B000F7DCE3EFF1E081918093F10021E0EA3F69
:1021C000F207C9F735C03032A1F4213209F058C006
:1021D0008091E80082FFFCCFE3EFF1E08091F10015
:1021E000819331E0EA3FF307C9F78BEF8093E80072
:1021F0001FC0323239F4213209F042C0E09281022C
:10220000CFDC16C03323C1F42983CADC29812238EC
:1022100051F40093E9009091EB0081E095FF80E09C
:102220001092E90001C080E08093F1001092F1006B
:102230008EEF8093E80027C0313011F0333001F584
:102240002230F1F4E114F104D9F40F77802F81509A
:102250008430B0F48EEF8093E8000093E9003330CF
:1022600079F089E18093EB0081E090E002C0880F73
:10227000991F0A95E2F78093EA001092EA0003C0E2
:1022800081E28093EB000F90CF91DF91FF91EF916E
:10229000BF91AF919F918F917F916F915F914F917E
:1022A0003F912F911F910F91FF90EF900F900BBED8
:1022B0000F900FBE0F901F9018951092CD00809335
:1022C000CC0082E48093C80088E98093C90086E04E
:1022D0008093CA0088B1817F88B9409A8FEF80933C
:1022E000CE00109284031092850308958091850397
:1022F000809384030895F894409828B12E6028B9FB
:10230000FC0120E030E00EC08091C80085FFFCCFCA
:102310008091C80080648093C80081918093CE0032
:102320002F5F3F4F822F2617370774F39091C80015
:1023300096FFFCCF98B1917F98B9409A7894089510
:1023400090918403809185039817B1F09091840354
:1023500080918503981730F4209185038091840340
:1023600030E007C0209185038091840330E0205045
:102370003F4F281B310902C020E030E0C901089519
:102380009091840380918503981799F0E0918403DC
:10239000F0E0EC57FD4F8081909184039F3F19F44A
:1023A000109284030895909184039F5F9093840317
:1023B00008958FEF0895CF92DF92EF92FF920F93DF
:1023C0001F93CF93DF93F82EE92E8B019091840316
:1023D000809185039817D1F0B3DFC82EE6016E0116
:1023E000D92EE6010C151D050CF4E801C701E92EF4
:1023F000F82E00E010E006C0C3DFF70181937F01F3
:102400000F5F1F4F0C171D07BCF302C0C0E0D0E0E8
:10241000CE01DF91CF911F910F91FF90EF90DF9050
:10242000CF9008951F920F920FB60F920BB60F9296
:1024300011248F939F93EF93FF9390918403809146
:102440008503981759F090918403809185038091BA
:10245000850390918403891B8F3F69F0E091850388
:10246000F0E08091CE00EC57FD4F80838091850392
:102470008F5F80938503FF91EF919F918F910F90D4
:102480000BBE0F900FBE0F901F901895DF92EF922A
:10249000FF920F931F937B018C0160E074E284EF45
:1024A00099E4A8019701DFD220E030E040E05FE34B
:1024B00075D241D3D62E862FB801A701FEDE21E0CA
:1024C00030E0309300022093FF0110926F041092CD
:1024D0006E048D2D1F910F91FF90EF90DF90089566
:1024E0001F9380916E0490916F048130910551F497
:1024F000809180049091810401969093810480934F
:10250000800450C081E090E090936F0480936E044B
:1025100080918903893940F490918A03292F2150B1
:10252000263028F0933819F084E090E02EC09FEF19
:10253000909386039093870340E050E090E006C0BC
:102540002A573C4FF9012281420F5F5F252F30E06F
:1025500082179307ACF78A579C4F4095FC01438341
:102560008091FF019091000206978230910508F456
:10257000BDDE109189031C5F86E893E0612F70E057
:10258000BADE181759F082E090E090930002809331
:10259000FF0110926F0410926E0404C010920002AA
:1025A0001092FF011F910895EF92FF920F931F93D6
:1025B00080916E0490916F04009709F4C0C08091DF
:1025C00088038E3F09F4B1C08091FF019091000211
:1025D000009729F410926D0486E080936C045F9A52
:1025E00080916D0490E060916C0470E0681B790B41
:1025F0008A5D9B4FE0DE90916D04980F90936D047F
:1026000080916C04981750F48091EF05882331F085
:10261000992309F087C086E090E089C05F98E09038
:102620006D042E2D30E0A90141505040B901625097
:10263000704010E0DA01AA5DBB4F11C0FC01EA5DF9
:10264000FB4FF0800F2D0F3F19F4E181EF3F61F058
:102650008617970719F4EC91EF3F31F01F5F812F38
:1026600090E08417950754F31123C1F060E0281B14
:10267000390B8A5D9B4F09C0FA01EA5DFB4F480F99
:10268000591FDA014C9140836F5F462F50E042178B
:10269000530794F30E2D011B00936D0480916D047C
:1026A00090916C048917E8F0209188039091280498
:1026B0002917C1F5609129046C5F60936C0486173B
:1026C000B8F490E070E0681B790B8A5D9B4F73DE75
:1026D00090916D04980F90936D0480916C049817FD
:1026E00038F485E090E0909300028093FF0127C0CA
:1026F0008091290490E040E050E006C02A5D3B4F05
:10270000F9012281420F5F5F252F30E08217930786
:10271000ACF78A5D9B4F4095DC0113968C91139723
:10272000841719F087E090E002C081E090E0909378
:1027300000028093FF0110926F0410926E041F91AB
:102740000F91FF90EF9008951092EF05C9DE8091F0
:10275000FF0190910002009751F0809170049091D8
:1027600071040196909371048093700408951092FF
:102770007B0410927A045D9A17DF20917A043091DD
:102780007B042F5F3F4F30937B0420937A045D9846
:102790008091FF01909100028530910561F3409195
:1027A0007E0450917F044217530720F430937F0436
:1027B00020937E048330910559F18430910524F4EF
:1027C0008130910571F51AC08630910569F0873026
:1027D000910539F58091720490917304019690935C
:1027E0007304809372040895809174049091750429
:1027F00001969093750480937404089580917604F3
:1028000090917704019690937704809376040895CD
:102810008091780490917904019690937904809343
:10282000780408958091FF01909100020895883006
:10283000910540F4FC01EE0FFF1FE75BFD4F208187
:10284000318102C02AEF31E0C901089580938803E5
:10285000089580938A030895FC01EA57FC4F65832D
:1028600008958093890308958091290490E0089544
:10287000FC01EA5DFB4F858190E0089540916E0474
:1028800050916F0420917C0430917D0401C09F0120
:10289000F901319641155105D1F730937D0420930C
:1028A0007C048093880382E080938A0360938B0387
:1028B00081E080938C0384E08093890345DF8091DD
:1028C0002B0490E00895E0916E04F0916F04209144
:1028D0007C0430917D0401C09D01D901119630978F
:1028E000D9F730937D0420937C048093880383E0A0
:1028F00080938A0360938B0340938C0384E08093DE
:10290000890322CF40916E0450916F0420917C0482
:1029100030917D0401C09F01F901319641155105A7
:10292000D1F730937D0420937C048093880382E068
:1029300080938A0360938B0380938C0384E080935D
:10294000890302DF30912C0420E080912B04280FB2
:10295000311DC9010895E0916E04F0916F0420913A
:102960007C0430917D0401C09D01D90111963097FE
:10297000D9F730937D0420937C048093880383E00F
:1029800080938A0360938B03CA0140938C03807009
:1029900090938D0385E080938903D6CE5058BB2752
:1029A000AA270ED00BC1FCD030F001D120F031F4B9
:1029B0009F3F11F41EF4F1C00EF4E095E7FBE7C071
:1029C000E92F0DD180F3BA176207730784079507C3
:1029D00018F071F49EF525C10EF4E0950B2EBA2F78
:1029E000A02D0B01B90190010C01CA01A001112415
:1029F000FF27591B99F0593F50F4503E68F11A16C1
:102A0000F040A22F232F342F4427585FF3CF469551
:102A100037952795A795F0405395C9F77EF41F1673
:102A2000BA0B620B730B840BBAF09150A1F0FF0F3D
:102A3000BB1F661F771F881FC2F70EC0BA0F621F29
:102A4000731F841F48F4879577956795B795F79519
:102A50009E3F08F0B3CF9395880F08F09927EE0FAB
:102A60009795879508950CD0A9C0A1D040F098D033
:102A700030F021F45F3F19F08AC05111D3C08DC0EE
:102A8000AED098F39923C9F35523B1F3951B550B99
:102A9000BB27AA2762177307840738F09F5F5F4F31
:102AA000220F331F441FAA1FA9F333D00E2E3AF072
:102AB000E0E830D091505040E695001CCAF729D08C
:102AC000FE2F27D0660F771F881FBB1F26173707DB
:102AD0004807AB07B0E809F0BB0B802DBF01FF270B
:102AE00093585F4F2AF09E3F510568F050C09AC03E
:102AF0005F3FECF3983EDCF3869577956795B79545
:102B0000F7959F5FC9F7880F911D9695879597F95F
:102B10000895E1E0660F771F881FBB1F62177307D8
:102B20008407BA0720F0621B730B840BBA0BEE1FED
:102B300088F7E09508955BD088F09F5790F0B92F03
:102B40009927B751A0F0D1F0660F771F881F991F02
:102B50001AF0BA95C9F712C0B13081F062D0B1E075
:102B600008955FC0672F782F8827B85F39F0B93F85
:102B7000CCF3869577956795B395D9F73EF4909504
:102B80008095709561957F4F8F4F9F4F089597F96E
:102B90009F6780E870E060E008959FEF80EC089503
:102BA00000240A941616170618060906089500242C
:102BB0000A9412161306140605060895092E0394A6
:102BC000000C11F4882352F0BB0F40F4BF2B11F41A
:102BD00060FF04C06F5F7F4F8F4F9F4F089557FD79
:102BE0009058440F551F59F05F3F71F04795880F7B
:102BF00097FB991F61F09F3F79F087950895121612
:102C000013061406551FF2CF4695F1DF08C01616BD
:102C100017061806991FF1CF86957105610508946E
:102C20000895E894BB2766277727CB0197F9089585
:102C30002F923F924F925F927F928F929F92AF928C
:102C4000BF92CF92DF92EF92FF920F931F93CF9399
:102C5000DF934B01EA016115710519F0FB018083D7
:102C60009183209739F09E01225030402332310564
:102C700008F0F1C0A82EB92EF50111915F017F0176
:102C8000812F90E0FFD00097B9F71D3229F4F501AC
:102C900011917F0101E006C01B3219F4F501119179
:102CA0007F0100E0209719F0C031D105B9F410334D
:102CB00081F4F7018081883711F0883551F4F701EC
:102CC000118182E090E0E80EF91E0260C0E1D0E0E0
:102CD00005C0209719F41033C1F422C0C830D105C3
:102CE000F9F0C930D10524F4C230D10509F507C087
:102CF000CA30D10551F0C031D105D1F426C0A12C84
:102D0000B12CC12CF0E4DF2E25C0CAE0D0E0ECEC01
:102D1000AE2EECECBE2EECECCE2EECE0DE2E1AC08D
:102D2000C8E0D0E0A12CB12CC12C70E1D72E12C08C
:102D30009E01442737FD4095542F60E070E080E00D
:102D400090E8C4D359016A0105C0A12CB12CC12C53
:102D500068E0D62E40E060E070E0CB011E01442424
:102D600037FC4094542C50ED752E710EE72DEA304F
:102D700070F0212F21542A3118F439EC732E06C03B
:102D8000212F21562A3128F529EA722E710E272D7E
:102D900030E02C173D07ECF447FD17C0A616B70628
:102DA000C806D90678F0A201910171D3670D711D93
:102DB000811D911D6130F0E07F07F0E08F07F0E8A2
:102DC0009F0710F04FEF01C041E0F70111917F0123
:102DD000CACF8114910491F0442339F00894E1089A
:102DE000F108F401F182E08209C001FF1BC09701E4
:102DF00022503040F4013183208314C047FF12C0B9
:102E000000FF05C060E070E080E090E804C06FEF74
:102E10007FEF8FEF9FE722E230E03093F1052093C0
:102E2000F00516C000FF08C09095809570956195DB
:102E30007F4F8F4F9F4F0CC097FF0AC082E290E0F8
:102E40009093F1058093F0056FEF7FEF8FEF9FE791
:102E50009B01AC0103C020E030E0A901B901CA0127
:102E6000DF91CF911F910F91FF90EF90DF90CF9066
:102E7000BF90AF909F908F907F905F904F903F90CA
:102E80002F900895911160C2803219F089508550B9
:102E9000D0F70895FB0151915523A9F0BF01DC0142
:102EA0004D9145174111E1F759F4CD0101900020F2
:102EB00049F04D9140154111C9F3FB014111EFCF8C
:102EC00081E090E0019708950F931F93DF93CF93D4
:102ED000CDB7DEB72E970FB6F894DEBF0FBECDBFCD
:102EE0000D891E898F89988D26E02C831A8309838A
:102EF00097FF02C080E090E801979E838D839E013A
:102F0000255E3F4FCE010196698D7A8DA90119D0BA
:102F10004D815E8157FD0AC02F81388542175307C6
:102F20000CF49A01020F131FF80110822E960FB6AF
:102F3000F894DEBF0FBECDBFCF91DF911F910F91EF
:102F400008952F923F924F925F926F927F928F924D
:102F50009F92AF92BF92CF92DF92EF92FF920F9328
:102F60001F93DF93CF93CDB7DEB72C970FB6F894AE
:102F7000DEBF0FBECDBF6C011B018A01FC011782B1
:102F80001682838181FFC4C12E010894411C511C0B
:102F9000F6019381F10193FD859193FF81911F01CA
:102FA000882309F4B1C1853239F493FD859193FFEB
:102FB00081911F01853221F490E0B601DED1E8CF86
:102FC000EE24FF2420E02032B0F48B3269F08C3202
:102FD00028F4803251F0833271F40BC08D3239F015
:102FE000803349F421602CC02260246029C028600D
:102FF00027C0206125C027FD2CC0382F30533A3020
:1030000098F426FF08C08E2D880FE82EEE0CEE0CEB
:10301000E80EE30E15C08F2D880FF82EFF0CFF0C65
:10302000F80EF30E20620CC08E3221F426FD6CC126
:10303000206406C08C3611F4206802C0883649F43A
:10304000F10193FD859193FF81911F01882309F080
:10305000BACF982F9554933018F09052933028F4AB
:103060000C5F1F4FFFE3F9830DC0833631F08337C8
:1030700071F0833509F05CC021C0F801808189833B
:103080000E5F1F4F420171E0A72EB12C15C062E008
:10309000662E712C600E711EF8018080918026FFD3
:1030A00003C06E2D70E002C06FEF7FEFC4012C876C
:1030B00059D15C0183012C852F7716C052E0652E13
:1030C000712C600E711EF8018080918026FF03C074
:1030D0006E2D70E002C06FEF7FEFC4012C8737D1F7
:1030E0005C012C852068830123FD1EC007C080E29F
:1030F00090E0B6012C8741D1FA942C858F2D90E079
:10310000A816B906A0F310C0F40127FD859127FF8A
:1031100081914F0190E0B6012C872FD12C85F110C1
:10312000FA940894A108B108A114B10469F7E9C0A0
:10313000843611F0893641F527FF08C0F801608117
:103140007181828193810C5F1F4F09C0F8016081FA
:103150007181882777FD8095982F0E5F1F4F4FE66E
:10316000B42EB22297FF09C0909580957095619515
:103170007F4F8F4F9F4FF0E8BF2AA2012AE030E037
:1031800028D1782E741844C0853731F43FEEB32E21
:10319000B2222AE030E025C099EFB92EB2228F3654
:1031A000C1F0803720F4883509F0AEC00DC08037FB
:1031B00021F0883709F0A8C002C020E1B22AB4FE8D
:1031C0000BC084E0B82A08C0B4FE09C0E6E0BE2AFD
:1031D00006C028E030E005C020E130E002C020E178
:1031E00032E0B7FE08C0F80160817181828193816D
:1031F0000C5F1F4F07C0F8016081718180E090E093
:103200000E5F1F4FA201E5D0782E7418FFE7BF2292
:10321000B6FE0BC02EEFB2227E1438F4B4FE07C007
:10322000B2FC05C08FEEB82202C0A72C01C0AE2CA4
:103230008B2D90E0B4FE0DC0FE01E70DF11D208145
:10324000203319F4E9EEBE2209C0A394B2FE06C0F1
:1032500004C086789070009709F0A3948B2C992471
:10326000B3FC13C0B0FE0EC0AF1428F4E72CEF0C73
:10327000EA18AF2C07C0E72C05C080E290E0B60149
:103280007CD0A394AF14C8F304C0AF1410F4FA18A0
:1032900001C0FF2484FE0EC080E390E0B6016DD033
:1032A00082FE1DC081FE03C088E590E010C088E763
:1032B00090E00DC0C40186789070009781F081FC89
:1032C00002C080E201C08BE2B7FC8DE290E0B60163
:1032D00054D005C080E390E0B6014FD0EA947E144C
:1032E000C8F37A94F201E70DF11D808190E0B601F8
:1032F00044D07720B1F705C080E290E0B6013DD020
:10330000FA94FF20C9F744CEF6012681378102C026
:103310002FEF3FEFC9012C960FB6F894DEBF0FBE1A
:10332000CDBFCF91DF911F910F91FF90EF90DF9074
:10333000CF90BF90AF909F908F907F906F905F9055
:103340004F903F902F900895992788270895FC016A
:103350000590615070400110D8F7809590958E0FC0
:103360009F1F0895FC016150704001900110D8F733
:10337000809590958E0F9F1F08950F931F93CF9365
:10338000DF938C01EB018B8181FF1BC082FF0DC09D
:103390002E813F818C819D812817390764F4E88153
:1033A000F9810193F983E88306C0E885F985802FC8
:1033B0000995009731F48E819F8101969F838E83BA
:1033C00002C00FEF1FEFC801DF91CF911F910F9146
:1033D0000895FA01AA27283051F1203181F1E894AB
:1033E0006F936E7F6E5F7F4F8F4F9F4FAF4FB1E0F8
:1033F0003ED0B4E03CD0670F781F891F9A1FA11DF3
:10340000680F791F8A1F911DA11D6A0F711D811DF3
:10341000911DA11D20D009F468943F912AE0269FB8
:1034200011243019305D3193DEF6CF010895462F17
:103430004770405D4193B3E00FD0C9F7F6CF462FF8
:103440004F70405D4A3318F0495D31FD4052419361
:1034500002D0A9F7EACFB4E0A6959795879577951E
:103460006795BA95C9F700976105710508959B01A5
:10347000AC010A2E06945795479537952795BA952E
:10348000C9F7620F731F841F951FA01D0895629FC7
:10349000D001739FF001829FE00DF11D649FE00D4C
:1034A000F11D929FF00D839FF00D749FF00D659FAD
:1034B000F00D9927729FB00DE11DF91F639FB00DAC
:1034C000E11DF91FBD01CF0111240895A1E21A2EBB
:1034D000AA1BBB1BFD010DC0AA1FBB1FEE1FFF1FB8
:1034E000A217B307E407F50720F0A21BB30BE40B08
:1034F000F50B661F771F881F991F1A9469F760954F
:103500007095809590959B01AC01BD01CF01089508
:04351000F894FFCF5D
:1035140045253378202533782025337820004D2520
:1035240032782025327820253278200050257820E2
:10353400257820257820004E25780A0D0059302062
:1035440025782025782025782025782025782025A1
:1035540078202578200059312025782025782025C9
:103564007820257820257820257820257820004685
:103574002578202578202578202578202578202571
:10358400782025780A0D00536572766F2025642013
:1035940072786F6B3A202564202825732074696D36
:1035A400656F75743A2025642920616C61726D2001
:1035B40030782578007265672025327520253278A9
:1035C4000A0D007265736574004572723A20676F64
:1035D400742025642063686172733A2025730A009D
:1035E4000A0D00D0016101010100020003006162C3
:1035F4000000313200002000010024F448010200E0
:1036040008000800E100000000086E6F6E6500010C
:10361400005458535543434553530052585355434C
:10362400434553530054584641494C00525846416F
:10363400494C0054584552524F5200525857414930
:1036440054494E4700525854494D454F5554005221
:1036540058434F52525550540001020B0215021C9C
:0A3664000223022B0235023F020090
:00000001FF
